:020000040800F2
:1000000068060020BD010008C5010008C7010008FE
:10001000C9010008CB010008CD0100080000000064
:10002000000000000000000000000000CF010008F8
:10003000D101000800000000D3010008D50100082C
:10004000D7010008D7010008D7010008D701000830
:10005000D7010008D7010008D7010008D701000820
:10006000D7010008D7010008D7010008D701000810
:10007000D7010008D7010008D7010008D701000800
:10008000D7010008D7010008D701000800000000D0
:10009000000000000000000000000000D701000880
:1000A000D7010008D7010008D7010008D7010008D0
:1000B000D7010008D7010008D7010008D7010008C0
:1000C000D7010008D7010008D7010008D7010008B0
:1000D000D7010008D7010008D7010008D7010008A0
:1000E000D7010008D7010008D70100080000000070
:1000F0000000000000000000000000000000000000
:1001000000000000000000000000000000000000EF
:100110000000000000000000D7010008D70100081F
:1001200000F002F800F03AF80AA090E8000C8244CF
:100130008344AAF10107DA4501D100F02FF8AFF2AC
:10014000090EBAE80F0013F0010F18BFFB1A43F0B5
:1001500001031847900C0000B00C0000103A24BFB7
:1001600078C878C1FAD8520724BF30C830C144BF1C
:1001700004680C607047000000230024002500265E
:10018000103A28BF78C1FBD8520728BF30C148BFFA
:100190000B6070471FB51FBD10B510BD00F0FBFA16
:1001A0001146FFF7F7FF00F046FA00F019FB03B421
:1001B000FFF7F2FF03BC00F021FB00000948804775
:1001C00009480047FEE7FEE7FEE7FEE7FEE7FEE739
:1001D000FEE7FEE7FEE7FEE704480549054A064B51
:1001E0007047000035060008210100086800002063
:1001F000680600206802002068020020002104E058
:1002000000BF00BF00BF00BF491C8142F8D3704748
:1002100070B50446204600F029FC0646FD4900F072
:100220006DFC0546FC4900F05FFB70BD2DE9F04117
:100230000446204600F01AFC0746F84900F05EFC30
:100240000646F54900F050FB0546F54900F054FD1F
:10025000BDE8F08100B54FF00050F2490860012080
:10026000FFF7CCFF4FF08040EE4908600120FFF718
:10027000C5FF4FF40050EB4908600A20FFF7BEFFAE
:100280004FF48040E74908600A20FFF7B7FF00BD40
:1002900030B502460B46FF20002113E0555C684054
:1002A00008240BE000F0800525B1312585EA4005E2
:1002B000E8B201E04506280E651EECB2002CF1DC28
:1002C0004D1CE9B29942E9DB30BD2DE9F04105460C
:1002D0000E46144631462846FFF7DAFF0746A74286
:1002E00002D00220BDE8F0810020FBE710B50346F4
:1002F00000240AE0181EA3F10101CBB201D10420B1
:1003000010BD4FF47A70FFF779FFC64808380068CF
:1003100000F400500028EDD02046F1E72DE9F0412F
:1003200004460E4617464FF00008002020704FF498
:100330008040BC49086080251EE04FF40050B94958
:1003400008600120FFF75AFF3846FFF7CFFF8046CD
:100350000320FFF753FFB3480838006800F48040DB
:1003600010B12078284320704FF00050AD4908604C
:100370000120FFF743FF6D10002DDEDC26B94FF0A2
:100380008040A849086003E04FF48040A549086018
:100390000120FFF733FF4FF40050A2490860052009
:1003A000FFF72CFF4FF000509E490860C013086013
:1003B0001420FFF723FF4046BDE8F0812DE9FC4102
:1003C00005460E4617463A46002101A8FFF7A6FF4C
:1003D000044634B9002211460DF10500FFF79EFFD7
:1003E00004462CB9002231466846FFF797FF0446C1
:1003F00034B99DF80020022101A8FFF766FF0446EA
:100400009DF805009DF8041040EA01202880204650
:10041000BDE8FC8130B50446002580231DE003EAD9
:10042000040020B94FF080407E49086003E04FF49B
:1004300080407C4908600120FFF7E0FE4FF4005047
:10044000784908600520FFF7D9FE4FF00050754944
:1004500008600120FFF7D2FE5B10002BDFDC4FF4B9
:10046000804070490860401008600120FFF7C6FE18
:100470006C480838006800F4804000B101254FF056
:100480000050684908601420FFF7B8FE284630BDC8
:1004900000B54FF48040634908600120FFF7AEFECD
:1004A0004FF400505F4908600120FFF7A7FE4FF0AE
:1004B00080405C4908600A20FFF7A0FE4FF0005022
:1004C000584908600A20FFF799FE00BD10B5FFF7F4
:1004D000DFFF554909784906080EFFF79BFF0446E0
:1004E000204610BD2DE9FC4105460E46904642F6D9
:1004F0000D47FFF7EBFF044644B9C7F30720FFF7AA
:1005000089FF0446F8B2FFF785FF0443FFF7A2FE18
:100510004CB9FFF7BDFF44490978012202EB4101C4
:10052000C8B2FFF777FF2CB94246002101A8FFF7B8
:1005300045FF04462CB9002201216846FFF73EFF23
:100540000446FFF787FE4CB9BDF80400FFF76EFEC6
:100550002860BDF80000FFF75BFE30602046BDE874
:10056000FC813248806940F00800304988612D489C
:100570000C38006820F07F602A490C390860084672
:10058000006840F0AA6008604FF480402549086088
:1005900040100860704700B52448806940F00800AA
:1005A000224988611F480C38006820F470601D499A
:1005B0000C3908600846006840F48060086008460E
:1005C000006820F4702008600846006840F480301D
:1005D0000860880613490860FFF7C3FF4FF4805096
:1005E0001049086000BD1148806940F008000F49BB
:1005F00088610C480C38006820F0F02009490C395B
:1006000008600846006840F0102008600848054966
:10061000086070470000C84200FF7F4700002F437A
:1006200000003442100C0140000000200010024085
:100630000080000870471CB543F2A20443F2410554
:100640004B48806940F00400494988614948006886
:1006500020F00F00474908600846006840F0040099
:1006600008604348806940F0100041498861424871
:10067000406820F0FF00404948600846406840F06C
:1006800011004860FFF7D6FFFFF7ADFFFFF783FFCC
:100690004CF25030FFF7B2FDFFF718FF280AFFF7C2
:1006A000B9FEE8B2FFF7B6FE3448FFF7A7FDFFF743
:1006B0000DFF200AFFF7AEFEE0B2FFF7ABFE3048B9
:1006C000FFF79CFD45E00020019000903222694632
:1006D00001A8FFF707FF2B49009800F0DBFA01D2D1
:1006E000012600E000262849019800F0D3FA01D243
:1006F000012000E0002006436EB14FF480701E49D7
:1007000008612248FFF77AFD4FF080701A490861AE
:100710001E48FFF773FD1C49019800F0BBFA01D297
:10072000012000E0002013490831096801F00101AF
:10073000084368B14FF400700F4908611348FFF790
:100740005DFD4FF000700C4908611048FFF756FD41
:1007500000BFB8E710B5FFF79BFE0020FFF75AFE79
:1007600004461CB90620FFF755FE0446204610BD7E
:1007700000100240000801400010014020A10700C5
:1007800040420F000000A04200000442A086010089
:10079000704770477047754600F02CF8AE4605006C
:1007A0006946534620F00700854618B020B5FFF78C
:1007B00013FDBDE820404FF000064FF000074FF05A
:1007C00000084FF0000B21F00701AC46ACE8C0096F
:1007D000ACE8C009ACE8C009ACE8C0098D46704778
:1007E00010B50446AFF300802046BDE81040FFF787
:1007F000DEBC0000004870470400002001491820BA
:10080000ABBEFEE7260002007047000090EA010F31
:1008100048BF81F0004100F17682421A3CBF801A45
:1008200089184FEAD0524FF07F4C1CEA410FA2EBDF
:10083000D15318BF9CEA026F00F03B804FF0004C90
:100840004CEA00204CEA012121FA03FC10EB0C0CCD
:100850001ED202F1FF325FEA1C2040EBC25038BFCB
:1008600070471CF07F0F4FEA400C18BFBCF17F4F60
:1008700038BF7047C3F12003994008BF20F0010042
:10088000BCF17F4F38BF7047A0F1C04000F0FDB908
:100890004FEA3C00000A40EBC25028BF1CF0FF0F9B
:1008A0004FEA400CE6D018BFBCF17F4F38BF70470D
:1008B000EAE79CEA026F05D010EA5C0F08BF00F07F
:1008C0000040704710B500F09AF900BF64FBBE3ECF
:1008D000401058BFC0F14040491058BFC1F14041DD
:1008E0008142EFF3008070474FF47F0C1CEAD01276
:1008F0001EBF1CEAD11392EA0C0F93EA0C0F00F012
:10090000858090EA010F48BF42F4807240F4000CE9
:1009100041F400002CF07F4120F07F4000B581427F
:10092000A2EB03020FF2081CACEB504EC0F100002A
:100930009EF800E04FEA4E0E00FB0EFC38BF490067
:100940004FEA2C1C02F5FA020CFB0EF34FEACE1E06
:100950004FEA112C4FEAC1210EEB635E42EB2242BB
:100960000EFB0CFC4FEA1C5300FB03114FEA112C49
:100970004FEA01310EFB0CFC4FEADC4C00FB0C1182
:10098000C14228BF09184CEB03335DF804EB10EBB0
:10099000410143EBC250B2F57C0F38BF704729D5F7
:1009A00012F0F00F1CBF00F1C04000F00040704793
:1009B000008182838485868788898B8C8D8E8F9138
:1009C0009293959697999A9C9D9FA0A2A3A5A7A85C
:1009D000AAACAEB0B2B3B5B7B9BCBEC0C2C5C7C988
:1009E000CCCED1D4D7D9DCDFE2E6E9ECF0F3F7FAEC
:1009F000FE0000004FEA400C0CF1807CBCF17E4F01
:100A000028BF7047B0F1C04000F03FB990EA010F35
:100A10000CEAD11348BF42F48072624538BF634587
:100A200007D213F47F0F16D080EA010000F00040D7
:100A3000704710B500F0E3F8097EFC3E00F005B801
:100A400080EA010000F00040704780EA010000F0F9
:100A5000004000F01AB912F47F0F04BF024870473B
:100A600080EA010000F011B90000C07FB0FA80F305
:100A700010FA03F2C3F19D030AD0D90501EB12204D
:100A8000530638BF704700F1010008BF20F0010095
:100A90007047000050EA010C00F113801CF5000FB4
:100AA00058BFBCF5000F01D48842704707D710F536
:100AB000000F58BF11F5000F15D4884270478942C6
:100AC00070471CF5000F04D5BCF5000FF7D5814227
:100AD00070474FF0807C1CEB400F38BF1CEB410F80
:100AE00001D28142704710B500F089F89224490084
:100AF0004FF000504FF08051FFF7EABE4FF47F0CEB
:100B00001CEAD0121EBF1CEAD11392EA0C0F93EA22
:100B10000C0F00F0478090EA010F48BF42F480724A
:100B20004FF0004C4CEA00204CEA012102EB03029A
:100B3000A0FB0113A2F50002002918BF43F0010336
:100B40005B0028BF4FEA330342EB22425FEA132CDB
:100B50004CEBC2502EBFBCEB436FB2F57C0F70471D
:100B60004FEA036CBCF1004F08BF20F00100B2F562
:100B70007C0F38BF70470BD582F0FF0212F5803F23
:100B8000C8BF704700F1C040D8BF00F000407047B8
:100B900000F5000C5FEA4C0C48BF7047B0F1C04054
:100BA00000F073B890EA010F0CEAD11348BF42F489
:100BB0008072624538BF634504D280EA010000F0CC
:100BC0000040704710B500F01AF800BF8900013EE0
:100BD00000F007B800F009B85FEA410C5FEA1C6C4E
:100BE00008D080EA010000F050B85FEA400C5FEAEC
:100BF0001C6CF6D14FF00040A0F5800070470EF15C
:100C0000020E2EF0030E5EF8044B244204D44FEA89
:100C10004102B2F17F4F11D84FEA4003B3F17F4F49
:100C20000CD80ED14FEAD07CB2F17F4F0CEB4C0CBC
:100C30000CF1020C08BF4CEBD17C04E04FF0080C27
:100C400001E04FEAD17C0CEB4C0324FA03F404F0EE
:100C50000704B4F1040C06D20EEB840CBDE810407E
:100C60004CF0010C6047DFE80CF0070802024FF07F
:100C70000040A0F5800010BD0846420018BFD2F128
:100C8000807288BF00F0004010BDFF2141EAD050C3
:100C9000C005704751EA000C00F113801CF5000FED
:100CA00058BFBCF5000F01D48142704707D711F53A
:100CB000000F58BF10F5000F15D4814270478942CC
:100CC00070471CF5000F04D5BCF5000FF7D588421E
:100CD00070474FF0807C1CEB410F38BF1CEB400F7E
:100CE00001D28842704780EA010081EA000180EA6F
:100CF0000100FFF7F8BE000090EA010F48BF81F045
:100D000000413FF58AAD421A04D882F00042A0EBC0
:100D1000020011444FEAD0524FF07F4C1CEA410FC1
:100D2000A2EBD15318BF9CEA026F4AD04FF0004C9F
:100D30004CEA00204CEA012121FA03FCB0EB0C0C38
:100D40000FD412F0FE0F36D05FEA4C001DD5001212
:100D500040EBC25038BF70471CF03F0F18BF7047C0
:100D60000BE0A2F101025FEA1C2040EBC25038BF49
:100D700070471CF07F0F18BF7047C3F120039940E4
:100D800014BF401E20F00100704780084FEA122374
:100D900008BF7047B0FA80FCA2EB0C02CCF1280C23
:100DA00060FA0CF093EA122F04BF00EBC2507047B8
:100DB0004FEAC3707047130A5FEADC1008BF704740
:100DC000F6E79CEA026F04D010EA5C0F08BF00202F
:100DD000704710B5FFF713FF40DFF63E81F000408B
:100DE00070470000040E000800000020040000000E
:100DF0005C010008080E00080400002064060000E2
:080E0000780100084500000024
:0400000508000121CD
:00000001FF
