:020000040800F2
:1000000068060020D5010008DD010008DF010008B6
:10001000E1010008E3010008E5010008000000001C
:10002000000000000000000000000000E7010008E0
:10003000E901000800000000EB010008ED010008E4
:10004000EF010008EF010008EF010008EF010008D0
:10005000EF010008EF010008EF010008EF010008C0
:10006000EF010008EF010008EF010008EF010008B0
:10007000EF010008EF010008EF010008EF010008A0
:10008000EF010008EF010008EF0100080000000088
:10009000000000000000000000000000EF01000868
:1000A000EF010008EF010008EF010008EF01000870
:1000B000EF010008EF010008EF010008EF01000860
:1000C000EF010008EF010008EF010008EF01000850
:1000D000EF010008EF010008EF010008EF01000840
:1000E000EF010008EF010008EF0100080000000028
:1000F0000000000000000000000000000000000000
:1001000000000000000000000000000000000000EF
:100110000000000000000000EF010008EF010008EF
:1001200000F002F800F047F80AA090E8000C8244C2
:100130008344AAF10107DA4501D100F03CF8AFF29F
:10014000090EBAE80F0013F0010F18BFFB1A43F0B5
:1001500001031847A8330000C8330000103A24BF39
:1001600078C878C1FAD8520724BF30C830C144BF1C
:1001700004680C607047000000230024002500265E
:10018000103A28BF78C1FBD8520728BF30C148BFFA
:100190000B607047662903F0A580002070471FB5EB
:1001A00000F032FF04000020002102F011FAE060AC
:1001B0001FBD10B510BD01F02BF81146FFF7EFFF82
:1001C00000F06CFB01F049F803B4FFF7F2FF03BC49
:1001D00001F08CF80948804709480047FEE7FEE730
:1001E000FEE7FEE7FEE7FEE7FEE7FEE7FEE7FEE7E7
:1001F00004480549054A064B704700009B08000863
:100200002101000868000020680600206802002024
:1002100068020020002104E000BF00BF00BF00BF53
:10022000491C8142F8D370472DE9F04F91B0044644
:100230000D460DB1342000E01720814615B1002095
:10024000FE4902E04FF0FF40002182468B4615B187
:1002500040F2FF3000E07F200D900DB13F2000E024
:100260001F200C900C9824FA00F000F0010080F0A0
:1002700001000B9004EA0A0100204A46CDE90E0174
:1002800008460E9900F0AEFB0D99401A0A904FF007
:10029000FF3009904FF0000637464FF000082BE082
:1002A000A9EB0800401E24FA00F000F001000890BD
:1002B000099802F0E9FB02460B46CDE90001002057
:1002C0004FF0804101F072FCCDE90401089802F082
:1002D000DBFBCDE90201DDE9042302F029FC324613
:1002E0003B46CDE9060102F0BBF906460F460998E8
:1002F000401E099008F10108C845D1DB0022D04B0F
:100300003046394602F0ACF906460F460A9802F02C
:10031000BBFB02460B46CDE9000100204FF08041B7
:1003200001F044FCCDE904010B9802F0ADFBCDE9EE
:100330000201DDE9042302F0FBFB32463B46CDE936
:10034000060102F0F5FB11B0BDE8F08F70B5044670
:1003500000212046FFF768FF054602F04FF970BD07
:1003600000B54FF00050B74908600120FFF752FF79
:100370004FF08040B34908600120FFF74BFF4FF476
:100380000050B04908600A20FFF744FF4FF4804056
:10039000AC4908600A20FFF73DFF00BD30B50246BA
:1003A0000B46FF20002113E0555C684008240BE059
:1003B00000F0800525B1312585EA4005E8B201E06D
:1003C0004506280E651EECB2002CF1DC4D1CE9B28E
:1003D0009942E9DB30BD2DE9F04105460E46144651
:1003E00031462846FFF7DAFF0746A74202D002202F
:1003F000BDE8F0810020FBE710B5034600240AE0C9
:10040000181EA3F10101CBB201D1042010BD4FF49D
:100410007A70FFF7FFFE8B480838006800F4005040
:100420000028EDD02046F1E72DE9F04104460E46C4
:1004300017464FF00008002020704FF4804081499B
:10044000086080251EE04FF400507E4908600120BE
:10045000FFF7E0FE3846FFF7CFFF80460320FFF7A7
:10046000D9FE78480838006800F4804010B1207840
:10047000284320704FF00050724908600120FFF7B8
:10048000C9FE6D10002DDEDC26B94FF080406D49AD
:10049000086003E04FF480406A4908600120FFF7DC
:1004A000B9FE4FF40050674908600520FFF7B2FE1F
:1004B0004FF0005063490860C01308601420FFF734
:1004C000A9FE4046BDE8F0812DE9FC4105460E46F7
:1004D00017463A46002101A8FFF7A6FF044634B9A3
:1004E000002211460DF10500FFF79EFF04462CB9CE
:1004F000002231466846FFF797FF044634B99DF85D
:100500000020022101A8FFF766FF04469DF80500C0
:100510009DF8041040EA012028802046BDE8FC81B7
:1005200030B50446002580231DE003EA040020B90D
:100530004FF080404349086003E04FF48040414958
:1005400008600120FFF766FE4FF400503D49086047
:100550000520FFF75FFE4FF000503A490860012088
:10056000FFF758FE5B10002BDFDC4FF4804035496D
:100570000860401008600120FFF74CFE3148083841
:10058000006800F4804000B101254FF000502D4973
:1005900008601420FFF73EFE284630BD00B54FF43A
:1005A0008040284908600120FFF734FE4FF40050D6
:1005B000244908600120FFF72DFE4FF080402149BB
:1005C00008600A20FFF726FE4FF000501D49086022
:1005D0000A20FFF71FFE00BD10B5FFF7DFFF1A4925
:1005E00009784906080EFFF79BFF0446204610BD18
:1005F0002DE9F04F89B006460F46904699464FF4D4
:10060000407AFFF7E9FF05464DB9CAF30720FFF727
:1006100087FF05460AF0FF00FFF782FF0543FFF75B
:100620009FFE4DB9FFF7BAFF07490978012202EB97
:100630004101C8B2FFF774FF002466E00000F07FBC
:100640000000F03F100C0140000000202DB90022F6
:1006500011466846FFF738FF054635B900221146B6
:100660000DF10200FFF730FF05462CB9BDF802007E
:10067000BDF8001040EA014B012C06D1BDF8020084
:10068000BDF8001040EA01400890022C06D1BDF8E8
:100690000200BDF8001040EA01400790032C06D18B
:1006A000BDF80200BDF8001040EA01400690042C9D
:1006B00006D1BDF80200BDF8001040EA01400590E7
:1006C000052C06D1BDF80200BDF8001040EA01403B
:1006D0000490062C06D1BDF80200BDF8001040EAD7
:1006E00001400390072C06D1BDF80200BDF80010B0
:1006F00040EA01400290082C06D1BDF80200BDF886
:10070000001040EA01400190641C092C9EDB2DB9C9
:10071000002211466846FFF7D7FE054635B900228C
:1007200001210DF10200FFF7CFFE0546FFF718FE8D
:1007300055BB5846FFF70AFE30600898FFF706FEE3
:1007400038600798FFF702FEC8F800000698FFF728
:10075000FDFDC9F800000598FFF7F8FD1299086043
:100760000498FFF7F3FD139908600398FFF7EEFD77
:10077000149908600298FFF7E9FD1599086001983F
:10078000FFF7E4FD16990860284609B0BDE8F08F30
:10079000F8B5054640F20226FFF71EFF044644B9AD
:1007A000C6F30720FFF7BCFE0446F0B2FFF7B8FE21
:1007B0000443FFF7D5FD42F21070FFF72BFD4CB953
:1007C000FFF7ECFE7A490978012202EB4101C8B239
:1007D000FFF7A6FE2CB9142201216846FFF774FE2C
:1007E0000446FFF7BDFD24B9BDF8000002F01CFD72
:1007F00028602046F8BD70B510266E4DFFF7ECFE60
:100800000446ACB9C6F30720FFF78AFE0446F0B2EF
:10081000FFF786FE0443C5F30740FFF781FE04435C
:100820000020FFF77DFE0443E8B2FFF779FE0443A2
:10083000FFF796FD204670BD5F48806940F00800D4
:100840005D4988614FF480405C4908604010086051
:100850005A480C38006820F07F6058490C3908600D
:100860000846006840F0AA600860704752488069F6
:1008700040F008005049886150480C38006820F06A
:10088000F0204E490C3908600846006840F01020FE
:1008900008604B48494908607047704790B0464827
:1008A000806940F00400444988614648006820F0AF
:1008B0000F00444908600846006840F004000860E2
:1008C0003D48806940F010003B4988613E484068DF
:1008D00020F0FF003C4948600846406840F01100A5
:1008E0004860FFF7DAFFFFF7C1FF3848FFF792FCD7
:1008F000FFF7A2FFFFF77FFF30E000200E900D9082
:100900000C900B900A9009900890079006900FA801
:10091000FFF73EFF4FF07E510F9802F051FC19D1C6
:1009200006A808A907AA09ABCDE90132CDE9031051
:100930000AA80BAB0CAA0DA900900EA8FFF758FE51
:100940000D9802F005FC044622460B4620A105A89E
:1009500000F05CF82248FFF75DFC00BFCDE71648C9
:10096000806940F008001449886114480C38006818
:1009700020F07F6011490C3908600846006840F09B
:10098000AA6008604FF480400C490860401008607D
:10099000704710B5FFF702FE0020FFF7C1FD0446C7
:1009A0001CB90620FFF7BCFD0446204610BD000020
:1009B00000000020AC00030000100240100C0140B9
:1009C00000800008000801400010014040420F0074
:1009D000504D322E353A202025322E32660000004E
:1009E00000350C00B2F120030AD5C2F1200320FA31
:1009F00002F001FA03F321FA02F140EA0300704722
:100A000021FA03F04FF00001704700000FB41CB54D
:100A1000074B06AA7B4469460090059800F0DBFA74
:100A20000020694600F0EAFA1CBC5DF814FB0000E7
:100A3000E505000070B5044685690068C10601D56A
:100A4000302600E02026C00707D070BDD4E9012180
:100A500030469047206A401C20626D1EF6D570BD5E
:100A600070B5044685690078C00707D170BDD4E928
:100A7000012120209047206A401C20626D1EF6D57F
:100A800070BD2DE9F0474FF0000A89460446C0F8D2
:100A900020A02046E1688847002876D0252806D087
:100AA000D4E901219047206A401C2062F1E7E16807
:100AB000204600258847C4F81CA006460027C4F835
:100AC00018A02A2E09D0304601F068F838B304EB9C
:100AD0008708303EC8F8186019E059F8041B204612
:100AE00004EB87029161E1688847012F064618D11F
:100AF000E069002820DA25F020051DE0D8F818006C
:100B000000EB800006EB40003038C8F818002046A3
:100B1000E1688847064601F041F80028EED1012F30
:100B20000AD02E2E08D12046E16888477F1C064651
:100B3000022F45F02005C4DBA069002803DA4042FB
:100B400045F00105A061E80701D025F01005B6B118
:100B5000A6F14100192802D8203645F400654A461E
:100B60003146204625604D46FFF714FB58B1012859
:100B700006D0ED1D25F0070000F1080989E704E023
:100B800005F1040985E730468AE7206ABDE8F08769
:100B900070477047704710B500F03AFA006810BD12
:100BA00010B5044600F034FA046010BD70472DE91A
:100BB000FF4F0C461E464FF0FF378BB0D2E90001C5
:100BC000DDF860800A908A46C1F30A5505B93D46B2
:100BD000002108464FF00000BAF1000F00F4400079
:100BE00005DA00EB80004FF4400101EA50004FEAC3
:100BF0009059B9F1010F00DDB9460A9850EA4A0050
:100C00000ED044F61050A5F2FF3545432F14B8F12D
:100C1000000F1ED07542291E1EDDC9F100021CE026
:100C2000B8F1010F4FF0000001D0302103E0F24392
:100C300005E02154401CB042FBDB3046002200217D
:100C400021540B99C1F80880C1E900200FB0BDE81C
:100C5000F08FBD1B6D1CDEE74A4600DA694206A82C
:100C600000F060FA06AB93E8070003AB83E80700E7
:100C700050460A9900F041FB8DE80700A0F50050AE
:100C80001F3800900398002D0ADD42F21F014A46EA
:100C90000844002303A90390684600F0AAFD09E078
:100CA000A0F500504A461F38002303A90390684668
:100CB00000F0B4FD8DE807000004000C03D04FF0F5
:100CC000FF30410800E01046B8F1000F03D00022C9
:100CD000009215461EE0751E05D400F09DF93032D5
:100CE00062556D1EF9D5B3460122084302D0002299
:100CF0007F1C04E02078302801D100227F1E002ACA
:100D0000099784D01DE0112D07DA00F085F9303203
:100D100062556D1C50EA0102F5D1084302D00098DB
:100D2000C8B10EE00021681E05E0235C625C6354DC
:100D30002254401E491C8142F7DBAB46A81B401ED3
:100D40000990002004F80B000B98099AC0F808805D
:100D5000C0E9002B7AE711264FF0000857E72DE98C
:100D6000F04F88460446D21D22F0070191B0D1E928
:100D70000001CDE90A0100F088FE02460B98C00F81
:100D800001D02D2007E02068810701D52B2002E04B
:100D9000202101EAC000032A099001D0072A05DBBF
:100DA00003464146204600F07DF90BE1207880069D
:100DB00001D5E06900E00620B8F1650F814606D054
:100DC000B8F1660F18D0B8F1670F70D131E000208C
:100DD000B9F1110F009001DB112301E009F10103CA
:100DE0000AAA01A90CA8FFF7E2FEDDE90C700026B3
:100DF00009F10105834647E001204B4600904FF082
:100E000000470AAA01A90CA8FFF7D1FEDDE90DB041
:100E10000C995D46002610B909F101000D18B9EBD7
:100E2000050003D4C0F1FF3609F10105A5EB090067
:100E30002BE0B9F1010F01DA4FF001090020B9F1FF
:100E4000110F0090484601DD112300E003460AAA75
:100E500001A90CA8FFF7ABFEDDE90C704D4600269A
:100E60008346207800070AD4AB4500DA5D4601A826
:100E7000012D04DD411911F8011C302907D04F451F
:100E800002DA17F1040F04DA012082460FE06D1E2A
:100E9000EEE7002F02DCED1B3E4403E0781CA84285
:100EA00000DD7D1CB81B00F1010A4FF000472078DF
:100EB000000703D4AA4501DB4FF0FF3A0021B7F148
:100EC000004F0DF143088DF8431024D002202B234E
:100ED000002F01DA7F422D230A21021EA0F101001A
:100EE00000DC5FB197FBF1FC97FBF1F201FB1C7C8E
:100EF00017460CF1300C08F801CDEEE7A8F101001F
:100F000003702188090501D5452100E06521A0F184
:100F1000010800F8011C09980FA9A1EB0807FF1DA3
:100F200000B10120411901EBEA70A1693844081AA7
:100F3000401EA0612078C00602D42046FFF77AFD4B
:100F4000099828B1D4E901219047206A401C206209
:100F50002078C00622D52046FFF76CFD1EE0002E4B
:100F600004DBB34502DD01A8805D00E03020D4E958
:100F700001219047206A401C2062761CAAF10100E2
:100F80005FEA000A0AD100F03FF8C0680168405CDF
:100F9000D4E901219047206A401C2062281EA5F157
:100FA0000105DCDC07E0D4E9012118F8010B9047CA
:100FB000206A401C2062381EA7F10107F3DC20469E
:100FC000FFF74EFD032011B041E6000001694A1C05
:100FD00002610878704700B58FB0CDE9013100217A
:100FE000059105497944CDE9031011466846FFF79C
:100FF00048FD0FB000BD0000E5FFFFFF0A6802F8E2
:10100000010B0A6070470000004870472400002070
:10101000004870470400002030B5B0F10A024FEAE2
:10102000900E71F100034EEA817EB0EB0E0061EB91
:1010300091014FEA101E4EEA017E10EB0E0041EBCB
:1010400011114FEA102E4EEA016E10EB0E0041EB2B
:1010500011214FEA104E4EEA014E10EB0E0041EB0B
:101060001141401841F100014FEAD00040EA4170BF
:101070004FEAD10110EB80054FEA810444EA9074F5
:1010800044EB01046D1944EB0404521BA3414FF0DF
:10109000000348BF0A3200D530BD401C41F10001B9
:1010A00030BD00002DE9F0411F46044603260168CB
:1010B000072A01F4006004DB08B116A505E016A5B7
:1010C00003E008B115A500E015A521F0100020608F
:1010D000A069C01EA0610FB1401EA0612046FFF7AD
:1010E000A9FC4FB1D4E9012138469047206A401C41
:1010F0002062C01C206206E0206AFAE7D4E90121E0
:1011000015F8010B9047761EF8D22046FFF7A8FC91
:10111000BDE8F0814E414E006E616E00494E4600C2
:10112000696E66002DE9F047814616468AB035485B
:1011300078440DC88DE80D0032487844801C03AC1B
:101140000DC884E80D0041F69B300844372190FB20
:10115000F1F290FBF1F5A5F1800501FB12041B3CB7
:1011600002D56442012000E00020DFF898A080460C
:101170000027FA44AAF1BE0A0EE0E0070AD0324680
:10118000684607EB470101230AEB810100F046FBAB
:101190008DE8070064107F1C002CEED1194F7F44AE
:1011A000AE3F19E0E80715D007EB04100DF1180A5F
:1011B00090E80E008AE80E00C068F04201D198194C
:1011C00008903246012306A903A800F027FB03ABD1
:1011D00083E807006D10641C002DE3D14FF001037C
:1011E00032466946B8F1000F03A802D000F001FBB7
:1011F00001E000F013FBC9E90001C9F808200AB0BA
:10120000BDE8F087B02300000048704704000020CC
:101210007546FFF7F9FFAE4605006946534620F0D4
:101220000700854618B020B5FEF7E2FFBDE8204074
:101230004FF000064FF000074FF000084FF0000B92
:1012400021F00701AC46ACE8C009ACE8C009ACE845
:10125000C009ACE8C0098D46704710B50446AFF32D
:1012600000802046BDE81040FEF7AEBF4FF0013CC5
:1012700050F8042B51F8043B9A4221D1A2EB0C0305
:10128000934313EACC1317D150F8042B51F8043BC5
:101290009A4215D1A2EB0C03934313EACC130BD162
:1012A00050F8042B51F8043B9A4209D1A2EB0C03ED
:1012B000934313EACC13DBD04FF00000704700BF1C
:1012C000D01A01BAB1FA81F101F0180122FA01F045
:1012D000CB40C1F12001DBB2C0B2C01A2CFA01F33D
:1012E000D11A914311EAC311E6D170470149182080
:1012F000ABBEFEE72600020070475FEA400C08BF65
:1013000091F0000F4FEA8C234FEAC12243EA51517A
:101310004FEA1C5018BF00F5F0404FEA300018BFEC
:1013200041F000415FEA6C5C00F02980BCF1FF3FB6
:1013300008BF40F080407047130C06BF12044FF006
:10134000100C4FF0000C130E04BF12020CF1080C2D
:10135000130F04BF12010CF1040C930F04BF920091
:101360000CF1020CD30F04BF52000CF1010C11461A
:101370004FF00002A0F11F00A0EB0C00704711F02D
:10138000004F08BF704731F000413FF4D5AF0B0C60
:1013900006BF09044FF0100C4FF0000C0B0E04BFF9
:1013A00009020CF1080C0B0F04BF09010CF1040C2D
:1013B0008B0F04BF89000CF1020CCB0F04BF490056
:1013C0000CF1010CCCF12003A0EB0C0022FA03F38A
:1013D00002FA0CF241EA030100F10100704720F02B
:1013E0007F4C80EA030023F07F47ACEB070303F553
:1013F0007C5300F0004003F1FF032DE980494FEAE0
:10140000154B09B44FEA144325EA0B4E24EA03486E
:101410000FF2042606EB132749083E785FEA3202F2
:1014200003FB0667C7F5000707FB06F64FEA5437CC
:101430004FEAD64606F1020607FB066CCCF1005CCB
:101440004FEA1C472CEA074C07FB06F40CFB06F599
:1014500004EB15464FEA961634BF00204FF00040CB
:101460004FEAD13706FB07FC4FEA1C4C0CFB0BF78D
:10147000D21B03FB0CF761EB07010CFB0EF7B0EB83
:10148000074072EB17420CFB08F734BFA2EB074290
:10149000B2EB074261EB17414FEA0C444FEA910768
:1014A00006FB07FC4FEA1C4C0CFB0BF7B0EBC740EC
:1014B00072EB573203FB0CF734BFA2EBC742B2EB1F
:1014C000C74261EB57310CFB0EF7B0EBC70072EB74
:1014D00057720CFB08F734BFA2EBC702B2EBC7028E
:1014E00061EB5771039F4FEA816141EA921104EB6E
:1014F000CC044FEAD1374FEA826206FB07FC42EA8E
:1015000090124FEA80604FEA1C4C0CFB0BF7D21B89
:1015100003FB0CF761EB07010CFB0EF7B0EB074088
:1015200072EB17420CFB08F734BFA2EB0742B2EB99
:10153000074261EB17414FEA8C554FEA910704EBE4
:101540009C2406FB07FC4FEA1C4C0CFB0BF7B0EB92
:10155000C74072EB573203FB0CF734BFA2EBC74214
:10156000B2EBC74261EB57310CFB0EF7B0EBC70093
:1015700072EB57720CFB08F734BFA2EBC702B2EB59
:10158000C70261EB577115EB4C254FEA816141EAC7
:1015900092114FEA82624FEAD13742EA901206FB7B
:1015A00007FC44F100044FEA80604FEA1C4C0CFB3E
:1015B0000BF7D21B03FB0CF761EB07010CFB0EF7DB
:1015C000B0EB074072EB17420CFB08F734BFA2EBFD
:1015D0000742B2EB074261EB174115EB1C154FEACE
:1015E000813141EA92414FEA823242EA90424FEA27
:1015F00080304FEA0C7644F1000448EA03434EEA97
:101600000B484FF0000EB2EB080C71EB030724BF40
:10161000624639464EEB0E0E4FF0000B0018524159
:1016200049414BEB0B0BB2EB080C71EB03077BF161
:10163000000B24BF624639464EEB0E0E4FF0000BF6
:101640000018524149414BEB0B0BB2EB080C71EB0C
:1016500003077BF1000B24BF624639464EEB0E0EAA
:1016600051EA020718BF46F0010616EB0E7655F157
:10167000000254F1000103D5BDE88901BDE80088EE
:10168000BDE88901BDE80048B619524141EB0101AE
:10169000A3F10103704780807F7E7D7C7B7A79781F
:1016A000777676757473727171706F6E6E6D6C6C27
:1016B0006B6A6A69686867666665646463636261C9
:1016C0006160605F5F5E5E5D5D5C5C5B5B5A5A594A
:1016D00059585857575656555555545453535252B6
:1016E0005251515050504F4F4F4E4E4D4D4D4C4C0E
:1016F0004C4B4B4B4A4A4A49494948484847474757
:101700004746464645454544444444434343434293
:10171000424242414141002B9C4630D477002BD0BD
:101720001CB54FEA370703B44FF010004FF010011B
:10173000BAF1000F06D0BCF1000FDCBF40F008008A
:1017400040F008014FF000000FBCBDE810400BF165
:10175000010BBBF1010F08BF5FEA170722BF12F1AF
:10176000010211F101014FF0004143F1000300F0CB
:10177000004043EA00007047F9D35708D0E746EA33
:10178000064613F1400F4FEA16461FDD13F1200FF6
:10179000DFBF16430A46002120335B42BED0C3F1AF
:1017A000200746EA064602FA07F74FEA164646EAD7
:1017B0000706C3F1200722FA03F201FA07F721FA1C
:1017C00003F14FF0000342EA0702A7E746EA0206E8
:1017D00046EA06464FEA164646EA0106BCBF46EA16
:1017E0000646360C4FF000034FF000024FF00001A8
:1017F00094E72DE9804C9A46934670B491E83800FE
:1018000007C831EA400C48BF34EA430C03D5FFF760
:10181000E6FDFFF780FFF0BCBDE8008C2DE9804CB1
:101820009A46934670B491E8380007C810F0804F8C
:1018300008BF13F0804F03D100F005F8FFF76BFFEE
:10184000F0BCBDE8008C20F07F4780EA030023F065
:101850007F4C07EB0C03A3F57C5300F00040A3F191
:10186000FE0392F0000F00F0B38095F0000F00F03F
:1018700077802DE901494FEA11404FEA144621EAE9
:10188000004800FB06FC24EA064708FB06F607FBB7
:1018900008F800FB07F718EB06484CEB164C4FEA2C
:1018A000124B18EB07484FEA15464CEB174022EA5B
:1018B0000B4E0BFB06FC25EA06470EFB06F607FB64
:1018C0000EFE0BFB07F71EEB064E4CEB164C4FF0D3
:1018D00000061EEB074E4CEB174B18EB0B0840F1C4
:1018E000000018EB0E0B58EB000840F100008F1AB7
:1018F0004FF000013CBFC943661B14BFB5EB040C9D
:1019000000213CBFC943F61B4FEA17444EEA8E0E36
:1019100027EA04454FEA1C4704FB07622CEA074C00
:1019200005FB07F70CFB05F604FB0CFC16EB074662
:1019300042EB174216EB0C4642EB1C421BEB060631
:1019400058EB0202414146EA9E0601D5BDE80189F5
:10195000B619524141EB0101A3F10103BDE8018930
:101960004FEA14454FEA114724EA054621EA074C9D
:1019700005FB07F406FB07F70CFB06F105FB0CFC67
:1019800011EB074144EB17444FEA124711EB0C41AE
:1019900044EB1C4422EA074C05FB07F206FB07F761
:1019A0000CFB06F605FB0CFC16EB074642EB174258
:1019B00016EB0C4642EB1C456A1854F1000148BF77
:1019C0007047B619524141EB0101A3F10103704781
:1019D00095F0000F37D04FEA11424FEA144721EA41
:1019E000024624EA074C02FB07F106FB07F70CFB53
:1019F00006F402FB0CFC14EB074441EB17414FEAE1
:101A0000154714EB0C4441EB1C4125EA074C02FB43
:101A100007F506FB07F70CFB06F602FB0CFC16EBC2
:101A2000074645EB174516EB0C4645EB1C421219D1
:101A300051F1000148BF7047B619524141EB010115
:101A4000A3F1010370474FEA14454FEA114724EA16
:101A5000054621EA074C05FB07F106FB07F70CFBDF
:101A600006F24FF0000605FB0CFC12EB074241EBBF
:101A7000174112EB0C4251EB1C4148BF70479218C2
:101A800041EB0101A3F101037047490050EAC12075
:101A900018BF04204A0D18BF40F0010040F2FF7249
:101AA000B2EB515F08BF40F00200012808BF0520DB
:101AB00070472DE9F0414F1E00EBC7010446D1E904
:101AC000000115461E4637F006020DD02A46334661
:101AD00001F02EF87F1E04EBC703D3E9002300F0CA
:101AE000BFFD37F00602F1D1022F25D0042F13D00D
:101AF000062F18BFBDE8F0812A46334601F018F8DA
:101B0000D4E90A2300F0ACFD2A46334601F010F870
:101B1000D4E9082300F0A4FD2A46334601F008F872
:101B2000D4E9062300F09CFD2A46334601F000F874
:101B3000D4E9042300F094FD2A46334600F0F8FF70
:101B4000D4E9022300F08CFD2A46334600F0F0FF72
:101B5000D4E90023BDE8F04100F082BD0022134625
:101B60001046014900F038BE0000F03F00F078BD9B
:101B7000002213461046114600F02EBE40F20132FC
:101B800000204FF0E04101F0E1BB0000024A0020DC
:101B9000110701F0DBBB000001FDFFFF30380A2810
:101BA00001D2012070470020704700002DE9F04D60
:101BB0001D460C4698B0174621F0004123F0004323
:101BC000002814BF4FF0010C4FF0000C0CEB440C3C
:101BD000FE4A0CEB02064FEA620C66452BD33E0030
:101BE00018BF012606EB45061644F94A964222D351
:101BF000F84A53EA070C02D0944205D148B918B00C
:101C000000201146BDE8F08D002808BF4FF0000C01
:101C100001D04FF0010C0CEB440212F5001F0AD862
:101C2000002F14BF4FF0010C4FF0000C0CEB4502DD
:101C300012F5001F07D918B03A462B462146BDE8D9
:101C4000F04DFFF793BF0022DFF88CA3002CB8BF44
:101C5000534526DADFF884C36345A8BF022220DAA1
:101C6000DFF870C39C451CDCDFF874C30CEB235C0D
:101C7000BCF1140F08DDCCF1340627FA06FC0CFA8F
:101C800006F6BE420DD108E05FB9CCF1140623FA86
:101C900006FC0CFA06F69E4203D10CF00102C2F1DA
:101CA000020251EA000C19D1002D17DA002C18BFDE
:101CB000022A01D0012A07D00220FEF771FF18B0D6
:101CC000BDE8F04DFFF74ABF0220FEF769FFFFF7BE
:101CD00045FF18B081F00041BDE8F08DB7F1000C70
:101CE0006CD1534525D104F1804212F5801201BF19
:101CF00000280020B74918B008BFBDE8F08DB548EE
:101D0000884207DC002DA1BF6046294618B0BDE817
:101D1000F08D07E0281E05DA80F0004118B060461B
:101D2000BDE8F08DAF497944D1E9000118B0BDE8B4
:101D3000F08DDFF8A0C2634525D1002D1FDA19B15F
:101D4000514512D1D8B909E0002840F0EC82A24AEE
:101D5000214618B062F31E01BDE8F08D0020214637
:101D600018B060F31E01BDE8F08D08DA18B0234604
:101D7000BDE8F04D02460020614600F02DBD18B0D0
:101D80002146BDE8F08D514518DAB5F1804F0DD0F0
:101D9000A5F1005CBCF1FF5C10D1B4F1000C0DDBCF
:101DA00018B06146BDE8F04D00F0ECBB234618B01A
:101DB0000246BDE8F04D194600F0BABE060024F018
:101DC000004C3BD1D9B1514533D1002C06DD002D5B
:101DD000A1BF0020514618B0BDE8F08D002C01DDF8
:101DE000002D1BDB002C13DA002D11DB012A4FF034
:101DF000000014BF78497C4918B0BDE8F08D022A74
:101E000018BF002C0AD0012A08D1002C06DA0AE0FB
:101E1000002CB8BF002D11DA012A04D0002018B020
:101E20000146BDE8F08D18B000204FF00041BDE83C
:101E3000F08DA1F14050B0F17F601AD0012000EB8D
:101E4000E47050EA020421D0624C521E4FF0000BA5
:101E5000104304BF4FF0000B644C654883427CDDA7
:101E6000644A654893421FDD884217DB002D25DB5D
:101E700037E0002C00DA4AB1022A0CBF01204FF0F3
:101E8000FF3018B0BDE8F04D00F0FEBD0120FEF7B8
:101E900087FE18B0BDE8F04DFFF76ABE4D4A8A4292
:101EA00002DC002D0ADC1CE0814202DA002D18DA87
:101EB00004E0484B994220DD002D12DD0220FEF7A0
:101EC0006FFEFFF75BFE05460E460022534658465E
:101ED000214600F02DFE18B066F31E012846BDE82D
:101EE000F08D0220FEF75CFEFFF750FE0A46214609
:101EF00018B062F31E01BDE8F08D00223046614645
:101F000001F03CF880460E466FF0010201F01EFA27
:101F10004FF05532394B00F03FFF4246334600F058
:101F200007FE0022364B00F037FF8246424633461A
:101F300004911046194600F0FBFD5246049B00F048
:101F4000F7FD8A4600904FF0C0422E4B4046314686
:101F500000F0EEFD2C4A2B4B00E027E0CDE9060116
:101F60005146009800F0E4FD82460191274A284B33
:101F70004046314600F0DCFD5246019B00F0FEFF7A
:101F800082460B4602460591DDE9060100F068FB3A
:101F9000DDE9062300268846304600F0EFFF524672
:101FA000059B00F0F9FE024600F07EB90020B1F575
:101FB000801F07DA35223046614601F0C7F9064630
:101FC0006FF0340000EB215024E00000FFFF1F0001
:101FD000FFFF0F000000F03F0000F07F00004043D3
:101FE00001FCFFFF361700000000F0FF0000F0BF0B
:101FF0000000E0410000F043FFFFEF3F5555D53FA3
:102000000000E03F4715F73FFE822B6544DF5DF897
:102010000BAE543EA0F2FF300190C1F3130040F02C
:102020007F6141F040510291FE498842D8BF0020B3
:1020300004DDFD498142C8BF012001DD0D9008E0AB
:1020400000200D900198401C01900298A0F580108E
:1020500002900299F54878440B910D9900EBC1006C
:10206000D0E900230F9330460A920B9900F086FFC7
:10207000CDE90601DDE90A2130460F9B00F0F0FAB8
:1020800002460B460020EA4900F0A6FB05910246F5
:102090000B460090DDE9060100F04AFD1490E5488A
:1020A0008A464FF0000878440299006812904FF079
:1020B000005040EA61010D980F9B01EB804000F554
:1020C000002109910A9A129800F058FF32460B9BA2
:1020D00000F062FE4246534600F02AFD0646029199
:1020E00040465146099B129A00F022FDDDE9062385
:1020F00000F052FE3246029B00F040FF059B009A22
:1021000000F016FD0091149A0490534610461946AB
:1021100000F00EFD06460246C7480B460291062116
:102120007844FFF7C6FCCDE90510029B3246104605
:10213000194600F0FDFCDDE9053200F0F9FC0591DF
:102140000646534640461946149A00F089FA009B09
:10215000049A00F0EDFC3246059B00F081FACDE9CF
:102160000510424653461046194600F0E1FC002295
:10217000B24B02910A9000F073FADDE9053200F0EB
:102180006FFA0E464246AD4B404600F0F7FE029B0A
:102190000A9A00F0F3FEDDE9053200F0FDFD42464B
:1021A00002910A9033461046514600F0C1FCCDE939
:1021B00006015346149A02990A9800F0B9FC8A461F
:1021C0000290334642460099049800F0B1FC534611
:1021D000029A00F045FA82460B4602460591DDE977
:1021E000060100F03DFADDE9062300208846064698
:1021F00000F0C4FE5246059B00F0CEFD82460991D8
:102200004FF060428E4B3046414600F091FC049006
:1022100006918C4A8A4B5046099900F089FC824607
:102220000291894A894B3046414600F081FC524672
:10223000029B00F015FA864B7B440D9A03EBC20318
:10224000D3E9002300F00CFA0E900791019800F0FA
:102250001BFC0591DDE9061382460E9A049800F0F6
:10226000FFF97C4A7A440D9B02EBC303D3E90023B8
:102270000093029200F0F4F95246059B00F0F0F949
:102280000026884652463046059B00F077FE009BAC
:10229000029A00F073FE069B049A00F06FFE079B03
:1022A0000E9A00F079FD024600200B460290384657
:1022B000294600F03DFC824601912B4638461946DE
:1022C000029A00F05BFE3246434600F031FC524673
:1022D000019B00F0C5F907468A4632464346294627
:1022E000029800F025FC05460E463A46534600F09B
:1022F000B7F9594A8846914221DBA8EB020353EA19
:10230000000210D12A46334600F038FECDE9040120
:10231000524A534B3846514600F0A2F9DDE90423F6
:1023200000F004FD21D20220FEF73AFCFFF726FC64
:102330000A46214618B062F31E01BDE8F08D494BF4
:1023400028F000429A4210D3474A08EB020353EAAE
:1023500000027FF4C6AD2A46334600F00FFE3A462F
:10236000534600F0E3FC7FF6BCAD0022019228F05A
:1023700000403E493E4A01EB2051824223DA481C8C
:102380004FF4801121FA00F040443A4AC0F30A5158
:102390007A44394BA1F2FF31CB4020EA0303C0F36A
:1023A000130040F48010C1F11401C840126801907C
:1023B000B8F1000FBCBF404201902846314600F002
:1023C000DDFD05460E462A4633463846514600F0A6
:1023D00047F94FF000084246284B4046059100F06F
:1023E000A7FBCDE90601264A264B4046059900F099
:1023F0009FFB009102902A4633464046059900F023
:10240000BDFD3A46534600F0C7FC1F4A1F4B00F083
:102410008FFB009B029A00F023F90746884602468C
:102420000B4635E08E9803007AB60B007E13000051
:102430000000F03FB6130000E41200000000084066
:1024400009C7EE3FFD033ADCF5015B14E02F3EBE09
:10245000BC1100008011000000009040FE822B653E
:102460004715973C00CC904000346F3F01FCFFFFC4
:102470000000E03FCC100000FFFF0F00432EE63FBE
:10248000396CA80C615C20BEEF39FAFE422EE63FA3
:10249000DDE9060100F0E4F8DDE9062305460E4615
:1024A00000F06CFD3A46434600F076FC0F462A46A3
:1024B000334600901046194600F03AFB8246024629
:1024C0002E4888460B4605217844FFF7F2FA52461B
:1024D000434600F02DFB2A46334600F05DFC804663
:1024E0008A463B4628463146009A00F021FB3B468F
:1024F000009A00F0B5F80691009000224FF080435A
:102500004046514600F03AFD0F460C904246534675
:102510002846314600F00CFB3B460C9A00F05CF973
:10252000069B009A00F02AFD2A46334600F026FD5D
:102530000022134B00F030FC054601980E4601EBDB
:1025400000510815002810DC28463146019A00F099
:10255000FDFEFFF79AFA042808BFFFF717FB28468D
:102560003146019A00F0F2FE05460B4618B02A46A5
:1025700058462146BDE8F04D00F0DABA6C0F000075
:102580000000F03F2DE9F04106460F4600F010FC38
:10259000041E0D4618BF0120284320F00040C0F162
:1025A0007F6000F1E040C00F0ED0301C18BF01204A
:1025B000384320F00040C0F17F6000F1E040C00FE0
:1025C00004BF0120FEF7ECFA20462946BDE8F08161
:1025D00010B500290AD00878002807D005487844AB
:1025E000FEF744FE002801D0002010BD02487844C8
:1025F00010BD00003E0F0000360F000021F0004229
:10260000A2F16052B2F5801F01F0004328BFD2F161
:102610007F6C0BD95FEA001C43EAC20242EB5070A8
:1026200018BF704728BF20F001007047B2F5801F27
:10263000BCBF184670474FEA410C1CF5001F02D280
:10264000084600F04ABE70B500F01CFB000000898F
:10265000FFF7F6BF4FF00040A0F580007047000084
:1026600010B591EA030F48BF83F0004300F18E8458
:10267000841A71EB030C05D2121943EB0C03001BF7
:1026800061EB0C01DFF824E14FEA1154A4EB135C79
:102690001EEA430F18BF9EEA445F73D023EA0E037D
:1026A000DCF1200E21EA045143F4801332D322FAE4
:1026B0000CFE10EB0E0023FA0CFE41EB0E01CCF1E8
:1026C000200E03FA0EFE10EB0E0051F10001B1F5E1
:1026D000801FCCF1200E32D201EB045112FA0EF21F
:1026E000BDE8104058BF7047401C38BF5FEA420247
:1026F00018BF7047002814BF20F0010041F100010D
:102700004FEA410313F5001F38BF7047A1F1C041E4
:1027100000F006BB012A43EB0302ACF1200CDCF114
:102720001F0E32BF4FF0000E23FA0CF310EB030024
:1027300041EB0451B4EB115FD0D0A1EB045101F592
:10274000801149085FEA300001EB04510ED350F1CB
:10275000000038BF12FA0EFE08D1BDE81040C9E7EC
:10276000401C38BF5FEA4202CAD1C3E7BDE810404F
:102770004FEA410313F5001F38BF7047A1F1C04174
:1027800000F0CEBA9EEA445F08D011EA5E0FBDE8C1
:10279000104004BF01F0004100207047BDE8104028
:1027A00070B500F06FFA00BF64FBBE3E0000E0FFB2
:1027B00002494FF0000000F097BD00BF0000F87F15
:1027C000491058BFC1F140415B1058BFC3F14043AD
:1027D0008B42EFF3008070472DE9C04130B4DFF841
:1027E000A0C23CEA111418BF3CEA131400F0EC80BC
:1027F00081EA03051CEA111444EAD57418BF1CEAE7
:10280000131500F0C780A4EB05044FF0004545EA1E
:10281000C12145EAC32341EA505143EA525304F12E
:102820007F74994204F500344FEAC0204FEAC22277
:1028300008BF904200F09C804FEA13650FF24016EB
:10284000765D4FEA134506FB05F7C7F1807706FB77
:1028500007F74FEAD737A7FB03687642C8F58038F9
:10286000A7FB06CE38BFA8F1010807FB08E64FF02A
:10287000000EA6FB028CE6FB03CEDCF1000CCEF1D1
:10288000004E38BFAEF1010EA6FB0C584FF000070A
:102890004FF00005E6FB0E87A1FB08C6A0FB07CEA4
:1028A00016EB0E0645F10005E1FB076515F1E04E5C
:1028B0007EBFA4F580345FEA46066D4116F18007BD
:1028C00045F100054FEA17274FEA066647EA056714
:1028D000A6F1DE46B6F1805F4FEA15251FD93846CE
:1028E00024F0010C05EBC471BCF1FE6F01EB0C117F
:1028F00002D8F0BCBDE8008124425CBF01F5801E17
:102900009EEAC47F02D4F0BCBDE80081244238D4E2
:10291000F0BCA1F1C041BDE8004100F001BA4FEAAE
:10292000D22242EA43524FEAD323A7FB02864FEA60
:10293000D02040EA415007FB03661EEA0E0F4FEA23
:10294000D12105FB026658BFA6EB0056B6EB005638
:102950004FEA520E4EEAC37E18EB0E0E56EB530EA4
:10296000BDD518EB02085E417F1C55F10005B6E7A6
:102970004FF480154FF000074FF000064FF00008AD
:10298000ADE7F0BC4FF0000001F1C04101F00041A3
:10299000BDE8008111EA0C1F0CEA131500D00CE011
:1029A00013EA0C1F00F025804FF00000F0BC81EA14
:1029B000030101F00041BDE80081F0BCBDE8004129
:1029C00081EA030100F0ACB9F0BCBDE8004170B58C
:1029D00000F058F9097EFC3E00F007B881EA0301D7
:1029E0004FF0000001F00041704781EA030100F060
:1029F00097B9F0BCBDE800414FF000002149704795
:102A0000FFFDFBF9F7F5F4F2F0EEEDEBE9E8E6E4B3
:102A1000E3E1E0DEDDDBDAD8D7D5D4D3D1D0CFCD3A
:102A2000CCCBCAC8C7C6C5C4C2C1C0BFBEBDBCBB73
:102A3000BAB9B8B7B6B5B4B3B2B1B0AFAEADACAB6E
:102A4000AAA9A8A8A7A6A5A4A3A3A2A1A09F9F9E48
:102A50009D9C9C9B9A9999989797969595949393FA
:102A6000929191908F8F8E8E8D8C8C8B8B8A898991
:102A70008888878786858584848383828281818014
:102A80000000FF070000F87F10F0004248BF4042FE
:102A9000B0FA80F310FA03F10AD0C3F11D0303F575
:102AA00080634FEA415002EB035202EBD1217047A1
:102AB0004FF000007047000051EA030C17D41CF5DA
:102AC000801F58BFBCF5801F00F10680994218BFD7
:102AD000704708BF9042704707D711F5801F58BF55
:102AE00013F5801F19D499427047894270471CF52D
:102AF000801F08D5BCF5801FF7D58B4218BF7047E3
:102B000008BF824270474FF4001C1CEB410F38BFD6
:102B10001CEB430F01D28B42704770B500F0B2F846
:102B2000922449004FF000514FF08053FFF748BE08
:102B3000DFF848C170B51CEA111E1EBF1CEA131550
:102B40009EEA0C0F95EA0C0F00F06F8081EA0304F7
:102B500023EA4C134EEAD47E21EA4C1141F4801151
:102B600043F48013AE44A1FB024CA0FB0365AEF11D
:102B70007F7E361955EB0C05A1FB034C4CF100038D
:102B8000A0FB021C16EB0C06654153F10003094241
:102B900018BF46F0010613F4007F0BD14FEA033152
:102BA0004FEA0530340341EA155140EA16506FF000
:102BB00003020AE04FEAC3214FEAC520F40241EACA
:102BC000555140EA56506FF0020202EB2E4201EBE3
:102BD000025585EACE710AD05FEA440C18BF24F092
:102BE000004450F1000041F1000120EAD47040F2AD
:102BF000FE7C624500D270BDA84214BF4FF08044F5
:102C00004FF04044002E08BF0024BEF1806FA8BFE3
:102C1000A1F1C041BDE8704080F282804FF0000019
:102C200001F1C04101F0004170479EEA0C0F0CEA2F
:102C3000131518BF95EA0C0F06D04FF0000081EA7B
:102C4000030E0EF0004170BD00F01CF88900013E3B
:102C500000F007B800F009B84FEA430C5FEA5C5C8B
:102C600008D081EA030100F05BB84FEA410C5FEA4B
:102C70005C5CF6D14FF00000014970470000FF078F
:102C80000000F87F0EF1020E2EF0030E5EF8046BCA
:102C9000364205D4012A43EB030515F5001F12D86F
:102CA000012841EB010C1CF5001F0CD80ED14FEA96
:102CB000D17C15F5001F0CEB4C0C0CF1020C08BF7D
:102CC0004CEBD37C04E04FF0080C01E04FEAD37CDE
:102CD0000CEB4C0526FA05F606F00706B6F1040CD7
:102CE00006D20EEB860CBDE870404CF0010C60473C
:102CF000DFE80CF0090B02024FF000414FF000003A
:102D0000A1F5002170BD19461046012851EB0104C0
:102D100018BFD4F5001484BF002001F0004170BD3D
:102D20000808A0F500114FEA3101704753EA010C81
:102D300017D41CF5801F58BFBCF5801F00F106801A
:102D40008B4218BF704708BF8242704707D713F500
:102D5000801F58BF11F5801F19D48B4270479B42CA
:102D600070471CF5801F08D5BCF5801FF7D5994228
:102D700018BF704708BF904270474FF4001C1CEB0F
:102D8000430F38BF1CEB410F01D2994270470FB47B
:102D90000CBC03BCFFF7C1BE91EA030F10B581F074
:102DA00000413FF565AC83F0004300F0EFB8000050
:102DB0002DE9F04101F5801CBCF5001FC0F2C38075
:102DC0004FEA115C21EA0C510CF1FD0C41F4801129
:102DD0005FEA5C0C0CF5C07C01D3400049413DA486
:102DE000890241EA905187028E0E0A0CA45D04FB11
:102DF00004F602FB06F6C6F14046A4FB0662F60D99
:102E000046EA422606FB06F4A4FB01235242C3F124
:102E1000404338BF5B1EA6FB02420024E6FB0324AE
:102E2000D20B42EA4446A6FB0623A1FB02E2A3FB27
:102E300007E4A4184FF0000252F10002E3FB014244
:102E40006442C2F1404E38BFAEF1010EA6FB04232E
:102E50004FF00002E6FB0E32A2FB03464FF00004E7
:102E6000B61954F10004E2FB0264A1FB06E6A4FBE0
:102E700007E816EB08064FF0000858F10008E4FBDD
:102E800001687642C8F1405838BFA8F10108A2FB9A
:102E900006E4A3FB08E52D194FF0000454F10004EB
:102EA000E2FB0854A1FB05E6A7FB04E818EB0608C3
:102EB0004FF0000656F10006E1FB048618F12005EC
:102EC00056F10006A809A8F11B08B10908F03F084F
:102ED000B8F10A0F40EA86601CD901EB0C51BDE83D
:102EE000F08100BFFCF5EEE8E2DDD8D3CFCBC7C35D
:102EF000C0BDB9B6B4B1AEACA9A7A5A3A19F9D9B17
:102F00009A9896959392908F8D8C8B8988878685D9
:102F100084838281A0FB006800FB01F208EB420879
:102F2000B8EB872807D5341858EB0104D5D5401CD9
:102F300051F10001D1E7341A78EB0104CDD4401EE1
:102F400071F10001C9E75FEA4C0C5FEA9C5C0DD1AE
:102F500005D34FF0000001F00041BDE8F081BDE86D
:102F6000F04170B5FFF78EFE6DDBFFBEBDE8F041AE
:102F70004FF00000004970470000F87F10B591EA5B
:102F8000030F48BF83F000433FF572AB841A71EB27
:102F9000030C07D212198CF0004C43EB0C03001BFE
:102FA00061EB0C01DFF8A4E14FEA1154A4EB135CD0
:102FB0001EEA430F18BF9EEA445F00F0B08023EA88
:102FC0006E03524221EA0451C3EB6E0338BF5B1E0D
:102FD000DCF1200E25D322FA0CFE10EB0E0043FA92
:102FE0000CFE41EB0E01CCF1200E03FA0EFE10EBAD
:102FF0000E0051F10001CCF1200E29D412FA0EF28C
:1030000001EB0451BDE8104058BF7047401C1CBF85
:10301000B2F1004F704700280CBF491C20F001009E
:10302000704712EB020E43EB030218BF4FF0010E84
:103030004EEA4202ACF1200CDCF11E0E54D943FAE8
:103040000CFE10EB0E0051F1FF31CCF11E0ED5D568
:103050000EF1010E12FA0EFE404141EB010101EBAF
:10306000445C5FEA5C5C10D910EBDE7001EB04514C
:1030700038BFBEF1004FBDE8104018BF70470028B0
:103080000CBF491C20F00100704730D24FEAD42C0D
:1030900011F5001124F400641BD0B1FA81F20B3A4F
:1030A000A41AA41ED2F12003914030FA03F319436D
:1030B000904001EBCC71002C01EB0451BDE81040B5
:1030C000A8BF704701F1C0414FF0000001F000417E
:1030D0007047B0FA80F310FA03F100D110BDE41A82
:1030E000173C4805C90AE4E701EB045110BD49103B
:1030F00001EB0451BDE810404FEA300002E04FF010
:10310000000170474A0008BF0042F8D0B2F5001F26
:1031100028BF704701F000414FF0000070479EEA61
:10312000445F07D011EA5E0FBDE8104004BF0021E4
:1031300000207047BDE8104070B5FFF7A3FD00BF49
:1031400040DFF63E83F00041104670470000E0FF8C
:1031500043004FEAD30C4FEA3C0C43401FBF4007EB
:103160000CF1605113F0FE4F70471CF0006F03D15B
:1031700000200CF0004170470CF0004343EA50700F
:1031800010B540EACC0000F062F800BF00000092E9
:103190004FEA0001FFF7C4BD4FF000414FF00000BF
:1031A000A1F500217047401058BFC0F140404910C0
:1031B00058BFC1F140418142EFF3008070470000E9
:1031C00050EA010C00F113801CF5000F58BFBCF54C
:1031D000000F01D48842704707D710F5000F58BF81
:1031E00011F5000F15D488427047894270471CF5CD
:1031F000000F04D5BCF5000FF7D5814270474FF0A2
:10320000807C1CEB400F38BF1CEB410F01D2814288
:10321000704710B500F01BF8922449004FF00050A1
:103220004FF08051FFF7BFBFB0FA80F310FA03F2FE
:10323000C3F19D030AD0D90501EB1220530638BF14
:10324000704700F1010008BF20F0010070470EF147
:10325000020E2EF0030E5EF8044B244204D44FEA13
:103260004102B2F17F4F11D84FEA4003B3F17F4FD3
:103270000CD80ED14FEAD07CB2F17F4F0CEB4C0C46
:103280000CF1020C08BF4CEBD17C04E04FF0080CB1
:1032900001E04FEAD17C0CEB4C0324FA03F404F078
:1032A0000704B4F1040C06D20EEB840CBDE8104008
:1032B0004CF0010C6047DFE80CF0070802024FF009
:1032C0000040A0F5800010BD0846420018BFD2F1B2
:1032D000807288BF00F0004010BDFF2141EAD0504D
:1032E000C0057047FDF73BBD0CF00F03092B08BF6D
:1032F000082000F059800A2B0BD0082B18BF70470C
:1033000008BF1CF0400F0AD04FF000004FF0000142
:1033100070471CF0400F18BF4FF0004070471CF082
:10332000100F08D020F0704300F07F4242EAD30132
:103330004FEA4370704700F0604021F07F4242EA5C
:10334000000201F07F4040EA727070474FF0FF0CBE
:103350004CF4E06C1CEA11531CBF9CEA030C94452E
:10336000C2BFDA4201EB02517047002B0DD0BCF115
:10337000000F0FD0002A01F00041A4BF41F0E0414E
:1033800041F07F614FF00000704701F000414FF0C5
:103390000000704750EA01334FF09B0C18BF4CF00F
:1033A000806C7FF405AA70471CF4801F11D01CF4B8
:1033B000E02F03D06FEACC31490070474FF0405006
:1033C000EFF3008222F0704242EA000282F30088AA
:1033D00070474FF000007047000000000000F03F11
:1033E000000000000000F83F0000000000000000A6
:1033F0000000004003B8E23F0000000000000000B1
:1034000006D0CF43EBFD4C3E033333333333E33F3E
:10341000FFAB6FDBB66DDB3F4D268F515555D53F6A
:1034200001411DA96074D13F65DBC9934A86CD3F38
:10343000EF4E454A287ECA3F3E5555555555C53F26
:1034400093BDBE166CC166BF2CDE25AF6A56113F18
:10345000F16BD2C541BDBBBED0A4BE726937663E1A
:10346000000000000000000002400000000000A07A
:103470000000000005400000000000C8000000003F
:103480000C4000000000409C0000000019400000BB
:103490000020BCBE0000000034400000BFC91B8EED
:1034A00000000004B5400000504BCFD06607E2CFCB
:1034B000010000006C4100003E8251AADFEEA734FB
:1034C00001000000D9420000DCB5A0E23A301F97AD
:1034D000FFFFFFFFB4450000FD25A0C8E9A3C14FD1
:1034E000FFFFFFFFFF3F0000000000800000000022
:1034F000FF3F000000000080000000003835000899
:1035000000000020040000005C0100083C350008B9
:103510000400002064060000780100081C00000080
:1035200043000000F8FFFFFF0C0000000E00000049
:0C3530000F0000002E00000069000000E9
:0400000508000121CD
:00000001FF
